{
  "_format": "hh-sol-artifact-1",
  "contractName": "WavePortal",
  "sourceName": "contracts/WavePortal.sol",
  "abi": [
    {
      "inputs": [],
      "stateMutability": "nonpayable",
      "type": "constructor"
    },
    {
      "inputs": [],
      "name": "getSenders",
      "outputs": [
        {
          "internalType": "uint256",
          "name": "",
          "type": "uint256"
        }
      ],
      "stateMutability": "view",
      "type": "function"
    },
    {
      "inputs": [],
      "name": "getTotalWaves",
      "outputs": [
        {
          "internalType": "uint256",
          "name": "",
          "type": "uint256"
        }
      ],
      "stateMutability": "view",
      "type": "function"
    },
    {
      "inputs": [],
      "name": "wave",
      "outputs": [],
      "stateMutability": "nonpayable",
      "type": "function"
    }
  ],
  "bytecode": "0x608060405234801561001057600080fd5b506100596040518060400160405280601f81526020017f4920616d206120636f6e747261637420616e64204920616d20736d617274210081525061005e60201b6103ff1760201c565b6101e1565b6100fa81604051602401610072919061015f565b6040516020818303038152906040527f41304fac000000000000000000000000000000000000000000000000000000007bffffffffffffffffffffffffffffffffffffffffffffffffffffffff19166020820180517bffffffffffffffffffffffffffffffffffffffffffffffffffffffff83818316178352505050506100fd60201b60201c565b50565b60008151905060006a636f6e736f6c652e6c6f679050602083016000808483855afa5050505050565b600061013182610181565b61013b818561018c565b935061014b81856020860161019d565b610154816101d0565b840191505092915050565b600060208201905081810360008301526101798184610126565b905092915050565b600081519050919050565b600082825260208201905092915050565b60005b838110156101bb5780820151818401526020810190506101a0565b838111156101ca576000848401525b50505050565b6000601f19601f8301169050919050565b61098b806101f06000396000f3fe608060405234801561001057600080fd5b50600436106100415760003560e01c8063128e0423146100465780636fe15b44146100645780639a2cdc081461006e575b600080fd5b61004e61008c565b60405161005b91906107af565b60405180910390f35b61006c61020d565b005b6100766103d1565b60405161008391906107af565b60405180910390f35b600080600090505b60018054905081101561020157600060026000600184815481106100e1577f4e487b7100000000000000000000000000000000000000000000000000000000600052603260045260246000fd5b9060005260206000200160009054906101000a900473ffffffffffffffffffffffffffffffffffffffff1673ffffffffffffffffffffffffffffffffffffffff1673ffffffffffffffffffffffffffffffffffffffff1681526020019081526020016000205490506101ed6040518060400160405280601681526020017f2573206861732077617665642025642074696d65732e00000000000000000000815250600184815481106101bc577f4e487b7100000000000000000000000000000000000000000000000000000000600052603260045260246000fd5b9060005260206000200160009054906101000a900473ffffffffffffffffffffffffffffffffffffffff1683610498565b5080806101f9906108ab565b915050610094565b50600180549050905090565b60003390506102516040518060400160405280600d81526020017f257320686173207761766564210000000000000000000000000000000000000081525082610537565b600160008082825461026391906107e6565b925050819055506001600260008373ffffffffffffffffffffffffffffffffffffffff1673ffffffffffffffffffffffffffffffffffffffff16815260200190815260200160002060008282546102ba91906107e6565b92505081905550600360008273ffffffffffffffffffffffffffffffffffffffff1673ffffffffffffffffffffffffffffffffffffffff16815260200190815260200160002060009054906101000a900460ff16610376576001819080600181540180825580915050600190039060005260206000200160009091909190916101000a81548173ffffffffffffffffffffffffffffffffffffffff021916908373ffffffffffffffffffffffffffffffffffffffff1602179055505b6001600360008373ffffffffffffffffffffffffffffffffffffffff1673ffffffffffffffffffffffffffffffffffffffff16815260200190815260200160002060006101000a81548160ff02191690831515021790555050565b60006103f7604051806060016040528060218152602001610935602191396000546105d3565b600054905090565b6104958160405160240161041391906106ef565b6040516020818303038152906040527f41304fac000000000000000000000000000000000000000000000000000000007bffffffffffffffffffffffffffffffffffffffffffffffffffffffff19166020820180517bffffffffffffffffffffffffffffffffffffffffffffffffffffffff838183161783525050505061066f565b50565b6105328383836040516024016104b093929190610741565b6040516020818303038152906040527f07c81217000000000000000000000000000000000000000000000000000000007bffffffffffffffffffffffffffffffffffffffffffffffffffffffff19166020820180517bffffffffffffffffffffffffffffffffffffffffffffffffffffffff838183161783525050505061066f565b505050565b6105cf828260405160240161054d929190610711565b6040516020818303038152906040527f319af333000000000000000000000000000000000000000000000000000000007bffffffffffffffffffffffffffffffffffffffffffffffffffffffff19166020820180517bffffffffffffffffffffffffffffffffffffffffffffffffffffffff838183161783525050505061066f565b5050565b61066b82826040516024016105e992919061077f565b6040516020818303038152906040527f9710a9d0000000000000000000000000000000000000000000000000000000007bffffffffffffffffffffffffffffffffffffffffffffffffffffffff19166020820180517bffffffffffffffffffffffffffffffffffffffffffffffffffffffff838183161783525050505061066f565b5050565b60008151905060006a636f6e736f6c652e6c6f679050602083016000808483855afa5050505050565b6106a18161083c565b82525050565b60006106b2826107ca565b6106bc81856107d5565b93506106cc818560208601610878565b6106d581610923565b840191505092915050565b6106e98161086e565b82525050565b6000602082019050818103600083015261070981846106a7565b905092915050565b6000604082019050818103600083015261072b81856106a7565b905061073a6020830184610698565b9392505050565b6000606082019050818103600083015261075b81866106a7565b905061076a6020830185610698565b61077760408301846106e0565b949350505050565b6000604082019050818103600083015261079981856106a7565b90506107a860208301846106e0565b9392505050565b60006020820190506107c460008301846106e0565b92915050565b600081519050919050565b600082825260208201905092915050565b60006107f18261086e565b91506107fc8361086e565b9250827fffffffffffffffffffffffffffffffffffffffffffffffffffffffffffffffff03821115610831576108306108f4565b5b828201905092915050565b60006108478261084e565b9050919050565b600073ffffffffffffffffffffffffffffffffffffffff82169050919050565b6000819050919050565b60005b8381101561089657808201518184015260208101905061087b565b838111156108a5576000848401525b50505050565b60006108b68261086e565b91507fffffffffffffffffffffffffffffffffffffffffffffffffffffffffffffffff8214156108e9576108e86108f4565b5b600182019050919050565b7f4e487b7100000000000000000000000000000000000000000000000000000000600052601160045260246000fd5b6000601f19601f830116905091905056fe596f75206861766520726563696576656420257320746f74616c20776176657321a26469706673582212206fe72e289b3865b28959b238ad5be6fffa023eeda81da88bba462d5fc3e4d0bb64736f6c63430008040033",
  "linkReferences": {},
  "deployedLinkReferences": {}
}